{
  "_format": "hh-sol-artifact-1",
  "contractName": "Shell",
  "sourceName": "contracts/Shell.sol",
  "abi": [
    {
      "inputs": [
        {
          "internalType": "uint256",
          "name": "cap",
          "type": "uint256"
        }
      ],
      "stateMutability": "nonpayable",
      "type": "constructor"
    },
    {
      "anonymous": false,
      "inputs": [
        {
          "indexed": true,
          "internalType": "address",
          "name": "owner",
          "type": "address"
        },
        {
          "indexed": true,
          "internalType": "address",
          "name": "spender",
          "type": "address"
        },
        {
          "indexed": false,
          "internalType": "uint256",
          "name": "value",
          "type": "uint256"
        }
      ],
      "name": "Approval",
      "type": "event"
    },
    {
      "anonymous": false,
      "inputs": [
        {
          "indexed": true,
          "internalType": "address",
          "name": "from",
          "type": "address"
        },
        {
          "indexed": true,
          "internalType": "address",
          "name": "to",
          "type": "address"
        },
        {
          "indexed": false,
          "internalType": "uint256",
          "name": "value",
          "type": "uint256"
        }
      ],
      "name": "Transfer",
      "type": "event"
    },
    {
      "inputs": [
        {
          "internalType": "address",
          "name": "owner",
          "type": "address"
        },
        {
          "internalType": "address",
          "name": "spender",
          "type": "address"
        }
      ],
      "name": "allowance",
      "outputs": [
        {
          "internalType": "uint256",
          "name": "",
          "type": "uint256"
        }
      ],
      "stateMutability": "view",
      "type": "function"
    },
    {
      "inputs": [
        {
          "internalType": "address",
          "name": "spender",
          "type": "address"
        },
        {
          "internalType": "uint256",
          "name": "amount",
          "type": "uint256"
        }
      ],
      "name": "approve",
      "outputs": [
        {
          "internalType": "bool",
          "name": "",
          "type": "bool"
        }
      ],
      "stateMutability": "nonpayable",
      "type": "function"
    },
    {
      "inputs": [
        {
          "internalType": "address",
          "name": "account",
          "type": "address"
        }
      ],
      "name": "balanceOf",
      "outputs": [
        {
          "internalType": "uint256",
          "name": "",
          "type": "uint256"
        }
      ],
      "stateMutability": "view",
      "type": "function"
    },
    {
      "inputs": [],
      "name": "blockReward",
      "outputs": [
        {
          "internalType": "uint256",
          "name": "",
          "type": "uint256"
        }
      ],
      "stateMutability": "view",
      "type": "function"
    },
    {
      "inputs": [],
      "name": "cap",
      "outputs": [
        {
          "internalType": "uint256",
          "name": "",
          "type": "uint256"
        }
      ],
      "stateMutability": "view",
      "type": "function"
    },
    {
      "inputs": [],
      "name": "decimals",
      "outputs": [
        {
          "internalType": "uint8",
          "name": "",
          "type": "uint8"
        }
      ],
      "stateMutability": "view",
      "type": "function"
    },
    {
      "inputs": [
        {
          "internalType": "address",
          "name": "spender",
          "type": "address"
        },
        {
          "internalType": "uint256",
          "name": "subtractedValue",
          "type": "uint256"
        }
      ],
      "name": "decreaseAllowance",
      "outputs": [
        {
          "internalType": "bool",
          "name": "",
          "type": "bool"
        }
      ],
      "stateMutability": "nonpayable",
      "type": "function"
    },
    {
      "inputs": [],
      "name": "destroy",
      "outputs": [],
      "stateMutability": "nonpayable",
      "type": "function"
    },
    {
      "inputs": [
        {
          "internalType": "address",
          "name": "spender",
          "type": "address"
        },
        {
          "internalType": "uint256",
          "name": "addedValue",
          "type": "uint256"
        }
      ],
      "name": "increaseAllowance",
      "outputs": [
        {
          "internalType": "bool",
          "name": "",
          "type": "bool"
        }
      ],
      "stateMutability": "nonpayable",
      "type": "function"
    },
    {
      "inputs": [],
      "name": "name",
      "outputs": [
        {
          "internalType": "string",
          "name": "",
          "type": "string"
        }
      ],
      "stateMutability": "view",
      "type": "function"
    },
    {
      "inputs": [],
      "name": "owner",
      "outputs": [
        {
          "internalType": "address payable",
          "name": "",
          "type": "address"
        }
      ],
      "stateMutability": "view",
      "type": "function"
    },
    {
      "inputs": [
        {
          "internalType": "uint256",
          "name": "reward",
          "type": "uint256"
        }
      ],
      "name": "setBlockReward",
      "outputs": [],
      "stateMutability": "nonpayable",
      "type": "function"
    },
    {
      "inputs": [],
      "name": "symbol",
      "outputs": [
        {
          "internalType": "string",
          "name": "",
          "type": "string"
        }
      ],
      "stateMutability": "view",
      "type": "function"
    },
    {
      "inputs": [],
      "name": "totalSupply",
      "outputs": [
        {
          "internalType": "uint256",
          "name": "",
          "type": "uint256"
        }
      ],
      "stateMutability": "view",
      "type": "function"
    },
    {
      "inputs": [
        {
          "internalType": "address",
          "name": "to",
          "type": "address"
        },
        {
          "internalType": "uint256",
          "name": "amount",
          "type": "uint256"
        }
      ],
      "name": "transfer",
      "outputs": [
        {
          "internalType": "bool",
          "name": "",
          "type": "bool"
        }
      ],
      "stateMutability": "nonpayable",
      "type": "function"
    },
    {
      "inputs": [
        {
          "internalType": "address",
          "name": "from",
          "type": "address"
        },
        {
          "internalType": "address",
          "name": "to",
          "type": "address"
        },
        {
          "internalType": "uint256",
          "name": "amount",
          "type": "uint256"
        }
      ],
      "name": "transferFrom",
      "outputs": [
        {
          "internalType": "bool",
          "name": "",
          "type": "bool"
        }
      ],
      "stateMutability": "nonpayable",
      "type": "function"
    }
  ],
  "bytecode": "0x60a06040523480156200001157600080fd5b506040516200236d3803806200236d833981810160405281019062000037919062000450565b62000047620001eb60201b60201c565b600a62000055919062000612565b8162000062919062000663565b6040518060400160405280600a81526020017f5368656c6c546f6b656e000000000000000000000000000000000000000000008152506040518060400160405280600381526020017f53485400000000000000000000000000000000000000000000000000000000008152508160039081620000df91906200091e565b508060049081620000f191906200091e565b505050600081116200013a576040517f08c379a0000000000000000000000000000000000000000000000000000000008152600401620001319062000a66565b60405180910390fd5b80608081815250505033600560006101000a81548173ffffffffffffffffffffffffffffffffffffffff021916908373ffffffffffffffffffffffffffffffffffffffff160217905550620001e4600560009054906101000a900473ffffffffffffffffffffffffffffffffffffffff16620001bb620001eb60201b60201c565b600a620001c9919062000612565b611388620001d8919062000663565b620001f460201b60201c565b5062000bd5565b60006012905090565b620002046200028560201b60201c565b816200021a6200028f60201b620004081760201c565b62000226919062000a88565b11156200026a576040517f08c379a0000000000000000000000000000000000000000000000000000000008152600401620002619062000b13565b60405180910390fd5b6200028182826200029960201b6200082f1760201c565b5050565b6000608051905090565b6000600254905090565b600073ffffffffffffffffffffffffffffffffffffffff168273ffffffffffffffffffffffffffffffffffffffff16036200030b576040517f08c379a0000000000000000000000000000000000000000000000000000000008152600401620003029062000b85565b60405180910390fd5b6200031f600083836200040660201b60201c565b806002600082825462000333919062000a88565b92505081905550806000808473ffffffffffffffffffffffffffffffffffffffff1673ffffffffffffffffffffffffffffffffffffffff168152602001908152602001600020600082825401925050819055508173ffffffffffffffffffffffffffffffffffffffff16600073ffffffffffffffffffffffffffffffffffffffff167fddf252ad1be2c89b69c2b068fc378daa952ba7f163c4a11628f55a4df523b3ef83604051620003e6919062000bb8565b60405180910390a362000402600083836200040b60201b60201c565b5050565b505050565b505050565b600080fd5b6000819050919050565b6200042a8162000415565b81146200043657600080fd5b50565b6000815190506200044a816200041f565b92915050565b60006020828403121562000469576200046862000410565b5b6000620004798482850162000439565b91505092915050565b7f4e487b7100000000000000000000000000000000000000000000000000000000600052601160045260246000fd5b60008160011c9050919050565b6000808291508390505b60018511156200051057808604811115620004e857620004e762000482565b5b6001851615620004f85780820291505b80810290506200050885620004b1565b9450620004c8565b94509492505050565b6000826200052b5760019050620005fe565b816200053b5760009050620005fe565b81600181146200055457600281146200055f5762000595565b6001915050620005fe565b60ff84111562000574576200057362000482565b5b8360020a9150848211156200058e576200058d62000482565b5b50620005fe565b5060208310610133831016604e8410600b8410161715620005cf5782820a905083811115620005c957620005c862000482565b5b620005fe565b620005de8484846001620004be565b92509050818404811115620005f857620005f762000482565b5b81810290505b9392505050565b600060ff82169050919050565b60006200061f8262000415565b91506200062c8362000605565b92506200065b7fffffffffffffffffffffffffffffffffffffffffffffffffffffffffffffffff848462000519565b905092915050565b6000620006708262000415565b91506200067d8362000415565b92508282026200068d8162000415565b91508282048414831517620006a757620006a662000482565b5b5092915050565b600081519050919050565b7f4e487b7100000000000000000000000000000000000000000000000000000000600052604160045260246000fd5b7f4e487b7100000000000000000000000000000000000000000000000000000000600052602260045260246000fd5b600060028204905060018216806200073057607f821691505b602082108103620007465762000745620006e8565b5b50919050565b60008190508160005260206000209050919050565b60006020601f8301049050919050565b600082821b905092915050565b600060088302620007b07fffffffffffffffffffffffffffffffffffffffffffffffffffffffffffffffff8262000771565b620007bc868362000771565b95508019841693508086168417925050509392505050565b6000819050919050565b6000620007ff620007f9620007f38462000415565b620007d4565b62000415565b9050919050565b6000819050919050565b6200081b83620007de565b620008336200082a8262000806565b8484546200077e565b825550505050565b600090565b6200084a6200083b565b6200085781848462000810565b505050565b5b818110156200087f576200087360008262000840565b6001810190506200085d565b5050565b601f821115620008ce5762000898816200074c565b620008a38462000761565b81016020851015620008b3578190505b620008cb620008c28562000761565b8301826200085c565b50505b505050565b600082821c905092915050565b6000620008f360001984600802620008d3565b1980831691505092915050565b60006200090e8383620008e0565b9150826002028217905092915050565b6200092982620006ae565b67ffffffffffffffff811115620009455762000944620006b9565b5b62000951825462000717565b6200095e82828562000883565b600060209050601f83116001811462000996576000841562000981578287015190505b6200098d858262000900565b865550620009fd565b601f198416620009a6866200074c565b60005b82811015620009d057848901518255600182019150602085019450602081019050620009a9565b86831015620009f05784890151620009ec601f891682620008e0565b8355505b6001600288020188555050505b505050505050565b600082825260208201905092915050565b7f45524332304361707065643a2063617020697320300000000000000000000000600082015250565b600062000a4e60158362000a05565b915062000a5b8262000a16565b602082019050919050565b6000602082019050818103600083015262000a818162000a3f565b9050919050565b600062000a958262000415565b915062000aa28362000415565b925082820190508082111562000abd5762000abc62000482565b5b92915050565b7f45524332304361707065643a2063617020657863656564656400000000000000600082015250565b600062000afb60198362000a05565b915062000b088262000ac3565b602082019050919050565b6000602082019050818103600083015262000b2e8162000aec565b9050919050565b7f45524332303a206d696e7420746f20746865207a65726f206164647265737300600082015250565b600062000b6d601f8362000a05565b915062000b7a8262000b35565b602082019050919050565b6000602082019050818103600083015262000ba08162000b5e565b9050919050565b62000bb28162000415565b82525050565b600060208201905062000bcf600083018462000ba7565b92915050565b60805161177c62000bf160003960006104e8015261177c6000f3fe608060405234801561001057600080fd5b50600436106101005760003560e01c8063395093511161009757806395d89b411161006657806395d89b411461029f578063a457c2d7146102bd578063a9059cbb146102ed578063dd62ed3e1461031d57610100565b8063395093511461021757806370a082311461024757806383197ef0146102775780638da5cb5b1461028157610100565b80631a18e707116100d35780631a18e7071461018f57806323b872dd146101ab578063313ce567146101db578063355274ea146101f957610100565b806306fdde0314610105578063095ea7b3146101235780630ac168a11461015357806318160ddd14610171575b600080fd5b61010d61034d565b60405161011a9190610ef2565b60405180910390f35b61013d60048036038101906101389190610fad565b6103df565b60405161014a9190611008565b60405180910390f35b61015b610402565b6040516101689190611032565b60405180910390f35b610179610408565b6040516101869190611032565b60405180910390f35b6101a960048036038101906101a4919061104d565b610412565b005b6101c560048036038101906101c0919061107a565b6104ac565b6040516101d29190611008565b60405180910390f35b6101e36104db565b6040516101f091906110e9565b60405180910390f35b6102016104e4565b60405161020e9190611032565b60405180910390f35b610231600480360381019061022c9190610fad565b61050c565b60405161023e9190611008565b60405180910390f35b610261600480360381019061025c9190611104565b610543565b60405161026e9190611032565b60405180910390f35b61027f61058b565b005b610289610656565b6040516102969190611152565b60405180910390f35b6102a761067c565b6040516102b49190610ef2565b60405180910390f35b6102d760048036038101906102d29190610fad565b61070e565b6040516102e49190611008565b60405180910390f35b61030760048036038101906103029190610fad565b610785565b6040516103149190611008565b60405180910390f35b6103376004803603810190610332919061116d565b6107a8565b6040516103449190611032565b60405180910390f35b60606003805461035c906111dc565b80601f0160208091040260200160405190810160405280929190818152602001828054610388906111dc565b80156103d55780601f106103aa576101008083540402835291602001916103d5565b820191906000526020600020905b8154815290600101906020018083116103b857829003601f168201915b5050505050905090565b6000806103ea610985565b90506103f781858561098d565b600191505092915050565b60065481565b6000600254905090565b600560009054906101000a900473ffffffffffffffffffffffffffffffffffffffff1673ffffffffffffffffffffffffffffffffffffffff163373ffffffffffffffffffffffffffffffffffffffff16146104a2576040517f08c379a00000000000000000000000000000000000000000000000000000000081526004016104999061127f565b60405180910390fd5b8060068190555050565b6000806104b7610985565b90506104c4858285610b56565b6104cf858585610be2565b60019150509392505050565b60006012905090565b60007f0000000000000000000000000000000000000000000000000000000000000000905090565b600080610517610985565b905061053881858561052985896107a8565b61053391906112ce565b61098d565b600191505092915050565b60008060008373ffffffffffffffffffffffffffffffffffffffff1673ffffffffffffffffffffffffffffffffffffffff168152602001908152602001600020549050919050565b600560009054906101000a900473ffffffffffffffffffffffffffffffffffffffff1673ffffffffffffffffffffffffffffffffffffffff163373ffffffffffffffffffffffffffffffffffffffff161461061b576040517f08c379a00000000000000000000000000000000000000000000000000000000081526004016106129061127f565b60405180910390fd5b600560009054906101000a900473ffffffffffffffffffffffffffffffffffffffff1673ffffffffffffffffffffffffffffffffffffffff16ff5b600560009054906101000a900473ffffffffffffffffffffffffffffffffffffffff1681565b60606004805461068b906111dc565b80601f01602080910402602001604051908101604052809291908181526020018280546106b7906111dc565b80156107045780601f106106d957610100808354040283529160200191610704565b820191906000526020600020905b8154815290600101906020018083116106e757829003601f168201915b5050505050905090565b600080610719610985565b9050600061072782866107a8565b90508381101561076c576040517f08c379a000000000000000000000000000000000000000000000000000000000815260040161076390611374565b60405180910390fd5b610779828686840361098d565b60019250505092915050565b600080610790610985565b905061079d818585610be2565b600191505092915050565b6000600160008473ffffffffffffffffffffffffffffffffffffffff1673ffffffffffffffffffffffffffffffffffffffff16815260200190815260200160002060008373ffffffffffffffffffffffffffffffffffffffff1673ffffffffffffffffffffffffffffffffffffffff16815260200190815260200160002054905092915050565b600073ffffffffffffffffffffffffffffffffffffffff168273ffffffffffffffffffffffffffffffffffffffff160361089e576040517f08c379a0000000000000000000000000000000000000000000000000000000008152600401610895906113e0565b60405180910390fd5b6108aa60008383610e58565b80600260008282546108bc91906112ce565b92505081905550806000808473ffffffffffffffffffffffffffffffffffffffff1673ffffffffffffffffffffffffffffffffffffffff168152602001908152602001600020600082825401925050819055508173ffffffffffffffffffffffffffffffffffffffff16600073ffffffffffffffffffffffffffffffffffffffff167fddf252ad1be2c89b69c2b068fc378daa952ba7f163c4a11628f55a4df523b3ef8360405161096d9190611032565b60405180910390a361098160008383610e5d565b5050565b600033905090565b600073ffffffffffffffffffffffffffffffffffffffff168373ffffffffffffffffffffffffffffffffffffffff16036109fc576040517f08c379a00000000000000000000000000000000000000000000000000000000081526004016109f390611472565b60405180910390fd5b600073ffffffffffffffffffffffffffffffffffffffff168273ffffffffffffffffffffffffffffffffffffffff1603610a6b576040517f08c379a0000000000000000000000000000000000000000000000000000000008152600401610a6290611504565b60405180910390fd5b80600160008573ffffffffffffffffffffffffffffffffffffffff1673ffffffffffffffffffffffffffffffffffffffff16815260200190815260200160002060008473ffffffffffffffffffffffffffffffffffffffff1673ffffffffffffffffffffffffffffffffffffffff168152602001908152602001600020819055508173ffffffffffffffffffffffffffffffffffffffff168373ffffffffffffffffffffffffffffffffffffffff167f8c5be1e5ebec7d5bd14f71427d1e84f3dd0314c0f7b2291e5b200ac8c7c3b92583604051610b499190611032565b60405180910390a3505050565b6000610b6284846107a8565b90507fffffffffffffffffffffffffffffffffffffffffffffffffffffffffffffffff8114610bdc5781811015610bce576040517f08c379a0000000000000000000000000000000000000000000000000000000008152600401610bc590611570565b60405180910390fd5b610bdb848484840361098d565b5b50505050565b600073ffffffffffffffffffffffffffffffffffffffff168373ffffffffffffffffffffffffffffffffffffffff1603610c51576040517f08c379a0000000000000000000000000000000000000000000000000000000008152600401610c4890611602565b60405180910390fd5b600073ffffffffffffffffffffffffffffffffffffffff168273ffffffffffffffffffffffffffffffffffffffff1603610cc0576040517f08c379a0000000000000000000000000000000000000000000000000000000008152600401610cb790611694565b60405180910390fd5b610ccb838383610e58565b60008060008573ffffffffffffffffffffffffffffffffffffffff1673ffffffffffffffffffffffffffffffffffffffff16815260200190815260200160002054905081811015610d51576040517f08c379a0000000000000000000000000000000000000000000000000000000008152600401610d4890611726565b60405180910390fd5b8181036000808673ffffffffffffffffffffffffffffffffffffffff1673ffffffffffffffffffffffffffffffffffffffff16815260200190815260200160002081905550816000808573ffffffffffffffffffffffffffffffffffffffff1673ffffffffffffffffffffffffffffffffffffffff168152602001908152602001600020600082825401925050819055508273ffffffffffffffffffffffffffffffffffffffff168473ffffffffffffffffffffffffffffffffffffffff167fddf252ad1be2c89b69c2b068fc378daa952ba7f163c4a11628f55a4df523b3ef84604051610e3f9190611032565b60405180910390a3610e52848484610e5d565b50505050565b505050565b505050565b600081519050919050565b600082825260208201905092915050565b60005b83811015610e9c578082015181840152602081019050610e81565b60008484015250505050565b6000601f19601f8301169050919050565b6000610ec482610e62565b610ece8185610e6d565b9350610ede818560208601610e7e565b610ee781610ea8565b840191505092915050565b60006020820190508181036000830152610f0c8184610eb9565b905092915050565b600080fd5b600073ffffffffffffffffffffffffffffffffffffffff82169050919050565b6000610f4482610f19565b9050919050565b610f5481610f39565b8114610f5f57600080fd5b50565b600081359050610f7181610f4b565b92915050565b6000819050919050565b610f8a81610f77565b8114610f9557600080fd5b50565b600081359050610fa781610f81565b92915050565b60008060408385031215610fc457610fc3610f14565b5b6000610fd285828601610f62565b9250506020610fe385828601610f98565b9150509250929050565b60008115159050919050565b61100281610fed565b82525050565b600060208201905061101d6000830184610ff9565b92915050565b61102c81610f77565b82525050565b60006020820190506110476000830184611023565b92915050565b60006020828403121561106357611062610f14565b5b600061107184828501610f98565b91505092915050565b60008060006060848603121561109357611092610f14565b5b60006110a186828701610f62565b93505060206110b286828701610f62565b92505060406110c386828701610f98565b9150509250925092565b600060ff82169050919050565b6110e3816110cd565b82525050565b60006020820190506110fe60008301846110da565b92915050565b60006020828403121561111a57611119610f14565b5b600061112884828501610f62565b91505092915050565b600061113c82610f19565b9050919050565b61114c81611131565b82525050565b60006020820190506111676000830184611143565b92915050565b6000806040838503121561118457611183610f14565b5b600061119285828601610f62565b92505060206111a385828601610f62565b9150509250929050565b7f4e487b7100000000000000000000000000000000000000000000000000000000600052602260045260246000fd5b600060028204905060018216806111f457607f821691505b602082108103611207576112066111ad565b5b50919050565b7f4f6e6c7920746865206f776e65722063616e2063616c6c20746869732066756e60008201527f6374696f6e000000000000000000000000000000000000000000000000000000602082015250565b6000611269602583610e6d565b91506112748261120d565b604082019050919050565b600060208201905081810360008301526112988161125c565b9050919050565b7f4e487b7100000000000000000000000000000000000000000000000000000000600052601160045260246000fd5b60006112d982610f77565b91506112e483610f77565b92508282019050808211156112fc576112fb61129f565b5b92915050565b7f45524332303a2064656372656173656420616c6c6f77616e63652062656c6f7760008201527f207a65726f000000000000000000000000000000000000000000000000000000602082015250565b600061135e602583610e6d565b915061136982611302565b604082019050919050565b6000602082019050818103600083015261138d81611351565b9050919050565b7f45524332303a206d696e7420746f20746865207a65726f206164647265737300600082015250565b60006113ca601f83610e6d565b91506113d582611394565b602082019050919050565b600060208201905081810360008301526113f9816113bd565b9050919050565b7f45524332303a20617070726f76652066726f6d20746865207a65726f2061646460008201527f7265737300000000000000000000000000000000000000000000000000000000602082015250565b600061145c602483610e6d565b915061146782611400565b604082019050919050565b6000602082019050818103600083015261148b8161144f565b9050919050565b7f45524332303a20617070726f766520746f20746865207a65726f20616464726560008201527f7373000000000000000000000000000000000000000000000000000000000000602082015250565b60006114ee602283610e6d565b91506114f982611492565b604082019050919050565b6000602082019050818103600083015261151d816114e1565b9050919050565b7f45524332303a20696e73756666696369656e7420616c6c6f77616e6365000000600082015250565b600061155a601d83610e6d565b915061156582611524565b602082019050919050565b600060208201905081810360008301526115898161154d565b9050919050565b7f45524332303a207472616e736665722066726f6d20746865207a65726f20616460008201527f6472657373000000000000000000000000000000000000000000000000000000602082015250565b60006115ec602583610e6d565b91506115f782611590565b604082019050919050565b6000602082019050818103600083015261161b816115df565b9050919050565b7f45524332303a207472616e7366657220746f20746865207a65726f206164647260008201527f6573730000000000000000000000000000000000000000000000000000000000602082015250565b600061167e602383610e6d565b915061168982611622565b604082019050919050565b600060208201905081810360008301526116ad81611671565b9050919050565b7f45524332303a207472616e7366657220616d6f756e742065786365656473206260008201527f616c616e63650000000000000000000000000000000000000000000000000000602082015250565b6000611710602683610e6d565b915061171b826116b4565b604082019050919050565b6000602082019050818103600083015261173f81611703565b905091905056fea2646970667358221220a763a3543b3bf6eda97e86fdb5d6066a7224900af799aea6023c4e19dd40981764736f6c63430008110033",
  "linkReferences": {},
  "deployedLinkReferences": {}
}