{
  "_format": "hh-sol-artifact-1",
  "contractName": "Bank",
  "sourceName": "contracts/Bank.sol",
  "abi": [
    {
      "inputs": [],
      "stateMutability": "payable",
      "type": "constructor"
    },
    {
      "anonymous": false,
      "inputs": [
        {
          "indexed": false,
          "internalType": "string",
          "name": "_symbol",
          "type": "string"
        },
        {
          "indexed": false,
          "internalType": "uint256",
          "name": "_amount",
          "type": "uint256"
        }
      ],
      "name": "DepositToken",
      "type": "event"
    },
    {
      "anonymous": false,
      "inputs": [
        {
          "indexed": false,
          "internalType": "uint256",
          "name": "_positionId",
          "type": "uint256"
        },
        {
          "indexed": false,
          "internalType": "string",
          "name": "_symbol",
          "type": "string"
        },
        {
          "indexed": false,
          "internalType": "uint256",
          "name": "_amount",
          "type": "uint256"
        },
        {
          "indexed": false,
          "internalType": "uint256",
          "name": "_percentagePerAnnum",
          "type": "uint256"
        },
        {
          "indexed": false,
          "internalType": "address",
          "name": "_walletAddress",
          "type": "address"
        },
        {
          "indexed": false,
          "internalType": "uint256",
          "name": "_createdDate",
          "type": "uint256"
        },
        {
          "indexed": false,
          "internalType": "uint256",
          "name": "_expire",
          "type": "uint256"
        },
        {
          "indexed": false,
          "internalType": "bool",
          "name": "_open",
          "type": "bool"
        }
      ],
      "name": "StakeToken",
      "type": "event"
    },
    {
      "anonymous": false,
      "inputs": [
        {
          "indexed": false,
          "internalType": "string",
          "name": "_symbol",
          "type": "string"
        },
        {
          "indexed": false,
          "internalType": "uint256",
          "name": "_amount",
          "type": "uint256"
        }
      ],
      "name": "WithdrawToken",
      "type": "event"
    },
    {
      "inputs": [
        {
          "internalType": "address",
          "name": "",
          "type": "address"
        },
        {
          "internalType": "string",
          "name": "",
          "type": "string"
        }
      ],
      "name": "balances",
      "outputs": [
        {
          "internalType": "uint256",
          "name": "",
          "type": "uint256"
        }
      ],
      "stateMutability": "view",
      "type": "function"
    },
    {
      "inputs": [
        {
          "internalType": "uint256",
          "name": "principal",
          "type": "uint256"
        },
        {
          "internalType": "uint256",
          "name": "rate",
          "type": "uint256"
        },
        {
          "internalType": "uint256",
          "name": "time",
          "type": "uint256"
        }
      ],
      "name": "calculateInterest",
      "outputs": [
        {
          "internalType": "uint256",
          "name": "",
          "type": "uint256"
        }
      ],
      "stateMutability": "pure",
      "type": "function"
    },
    {
      "inputs": [
        {
          "internalType": "uint256",
          "name": "amount",
          "type": "uint256"
        },
        {
          "internalType": "string",
          "name": "symbol",
          "type": "string"
        }
      ],
      "name": "depositTokens",
      "outputs": [],
      "stateMutability": "nonpayable",
      "type": "function"
    },
    {
      "inputs": [
        {
          "internalType": "uint256",
          "name": "positionId",
          "type": "uint256"
        }
      ],
      "name": "getPositionById",
      "outputs": [
        {
          "components": [
            {
              "internalType": "uint256",
              "name": "positionId",
              "type": "uint256"
            },
            {
              "internalType": "string",
              "name": "symbol",
              "type": "string"
            },
            {
              "internalType": "uint256",
              "name": "amount",
              "type": "uint256"
            },
            {
              "internalType": "uint256",
              "name": "percentagePerAnnum",
              "type": "uint256"
            },
            {
              "internalType": "address",
              "name": "walletAddress",
              "type": "address"
            },
            {
              "internalType": "uint256",
              "name": "createdDate",
              "type": "uint256"
            },
            {
              "internalType": "uint256",
              "name": "expire",
              "type": "uint256"
            },
            {
              "internalType": "bool",
              "name": "open",
              "type": "bool"
            }
          ],
          "internalType": "struct Bank.Position",
          "name": "",
          "type": "tuple"
        }
      ],
      "stateMutability": "view",
      "type": "function"
    },
    {
      "inputs": [],
      "name": "getPositionIdsForAddress",
      "outputs": [
        {
          "internalType": "uint256[]",
          "name": "",
          "type": "uint256[]"
        }
      ],
      "stateMutability": "view",
      "type": "function"
    },
    {
      "inputs": [
        {
          "internalType": "string",
          "name": "symbol",
          "type": "string"
        }
      ],
      "name": "getTokenBalance",
      "outputs": [
        {
          "internalType": "uint256",
          "name": "",
          "type": "uint256"
        }
      ],
      "stateMutability": "view",
      "type": "function"
    },
    {
      "inputs": [],
      "name": "getWhitelistedSymbols",
      "outputs": [
        {
          "internalType": "string[]",
          "name": "",
          "type": "string[]"
        }
      ],
      "stateMutability": "view",
      "type": "function"
    },
    {
      "inputs": [
        {
          "internalType": "string",
          "name": "symbol",
          "type": "string"
        }
      ],
      "name": "getWhitelistedTokenAddress",
      "outputs": [
        {
          "internalType": "address",
          "name": "",
          "type": "address"
        }
      ],
      "stateMutability": "view",
      "type": "function"
    },
    {
      "inputs": [
        {
          "internalType": "address",
          "name": "",
          "type": "address"
        },
        {
          "internalType": "uint256",
          "name": "",
          "type": "uint256"
        }
      ],
      "name": "positionIdsByAddress",
      "outputs": [
        {
          "internalType": "uint256",
          "name": "",
          "type": "uint256"
        }
      ],
      "stateMutability": "view",
      "type": "function"
    },
    {
      "inputs": [
        {
          "internalType": "uint256",
          "name": "",
          "type": "uint256"
        }
      ],
      "name": "positions",
      "outputs": [
        {
          "internalType": "uint256",
          "name": "positionId",
          "type": "uint256"
        },
        {
          "internalType": "string",
          "name": "symbol",
          "type": "string"
        },
        {
          "internalType": "uint256",
          "name": "amount",
          "type": "uint256"
        },
        {
          "internalType": "uint256",
          "name": "percentagePerAnnum",
          "type": "uint256"
        },
        {
          "internalType": "address",
          "name": "walletAddress",
          "type": "address"
        },
        {
          "internalType": "uint256",
          "name": "createdDate",
          "type": "uint256"
        },
        {
          "internalType": "uint256",
          "name": "expire",
          "type": "uint256"
        },
        {
          "internalType": "bool",
          "name": "open",
          "type": "bool"
        }
      ],
      "stateMutability": "view",
      "type": "function"
    },
    {
      "inputs": [
        {
          "internalType": "string",
          "name": "symbol",
          "type": "string"
        },
        {
          "internalType": "uint256",
          "name": "tokenAmount",
          "type": "uint256"
        },
        {
          "internalType": "uint256",
          "name": "percentagePerAnnum",
          "type": "uint256"
        },
        {
          "internalType": "uint256",
          "name": "expires",
          "type": "uint256"
        },
        {
          "internalType": "bool",
          "name": "fromBalance",
          "type": "bool"
        }
      ],
      "name": "stakeToken",
      "outputs": [],
      "stateMutability": "nonpayable",
      "type": "function"
    },
    {
      "inputs": [
        {
          "internalType": "uint256",
          "name": "",
          "type": "uint256"
        }
      ],
      "name": "tokenSymbols",
      "outputs": [
        {
          "internalType": "string",
          "name": "",
          "type": "string"
        }
      ],
      "stateMutability": "view",
      "type": "function"
    },
    {
      "inputs": [
        {
          "internalType": "string",
          "name": "symbol",
          "type": "string"
        },
        {
          "internalType": "address",
          "name": "tokenAddress",
          "type": "address"
        }
      ],
      "name": "whitelistTokens",
      "outputs": [],
      "stateMutability": "nonpayable",
      "type": "function"
    },
    {
      "inputs": [
        {
          "internalType": "string",
          "name": "",
          "type": "string"
        }
      ],
      "name": "whitelistedTokens",
      "outputs": [
        {
          "internalType": "address",
          "name": "",
          "type": "address"
        }
      ],
      "stateMutability": "view",
      "type": "function"
    },
    {
      "inputs": [
        {
          "internalType": "uint256",
          "name": "amount",
          "type": "uint256"
        }
      ],
      "name": "withdrawMatic",
      "outputs": [],
      "stateMutability": "nonpayable",
      "type": "function"
    },
    {
      "inputs": [
        {
          "internalType": "uint256",
          "name": "positionId",
          "type": "uint256"
        }
      ],
      "name": "withdrawStakedToken",
      "outputs": [],
      "stateMutability": "nonpayable",
      "type": "function"
    },
    {
      "inputs": [
        {
          "internalType": "uint256",
          "name": "amount",
          "type": "uint256"
        },
        {
          "internalType": "string",
          "name": "symbol",
          "type": "string"
        }
      ],
      "name": "withdrawTokens",
      "outputs": [],
      "stateMutability": "nonpayable",
      "type": "function"
    },
    {
      "stateMutability": "payable",
      "type": "receive"
    }
  ],
  "bytecode": "0x608060405233600160006101000a81548173ffffffffffffffffffffffffffffffffffffffff021916908373ffffffffffffffffffffffffffffffffffffffff160217905550612c20806100546000396000f3fe6080604052600436106101025760003560e01c80636e7ddea811610095578063b838ec8611610064578063b838ec861461044c578063c1dc5ae614610489578063ca1c6d01146104b2578063e8a379b2146104db578063ec2c4e6814610504576101b0565b80636e7ddea81461036557806399fbab88146103a2578063ad1adeb5146103e6578063af7abf151461040f576101b0565b806345eae373116100d157806345eae373146102a95780634b1e4aa5146102e65780634b4ea9541461031157806365342d4f1461033c576101b0565b8063025abd58146101b557806305d01f50146101f257806305e1bd8c1461022f57806341623b721461026c576101b0565b366101b05734600460003373ffffffffffffffffffffffffffffffffffffffff1673ffffffffffffffffffffffffffffffffffffffff16815260200190815260200160002060405161015390611903565b908152602001604051809103902060008282546101709190611951565b925050819055507f3461ba27d9932c11408ca02528d7676a3d67a8fe644157a7eac1fccc3b3b5225346040516101a691906119c8565b60405180910390a1005b600080fd5b3480156101c157600080fd5b506101dc60048036038101906101d79190611b50565b61052d565b6040516101e99190611b99565b60405180910390f35b3480156101fe57600080fd5b5061021960048036038101906102149190611c12565b610592565b6040516102269190611b99565b60405180910390f35b34801561023b57600080fd5b5061025660048036038101906102519190611c9a565b6105cd565b6040516102639190611b99565b60405180910390f35b34801561027857600080fd5b50610293600480360381019061028e9190611b50565b6105fb565b6040516102a09190611cfc565b60405180910390f35b3480156102b557600080fd5b506102d060048036038101906102cb9190611d17565b610644565b6040516102dd9190611b99565b60405180910390f35b3480156102f257600080fd5b506102fb610675565b6040516103089190611e98565b60405180910390f35b34801561031d57600080fd5b5061032661074e565b6040516103339190611f78565b60405180910390f35b34801561034857600080fd5b50610363600480360381019061035e9190611fd2565b6107e3565b005b34801561037157600080fd5b5061038c60048036038101906103879190612069565b610c47565b60405161039991906120cf565b60405180910390f35b3480156103ae57600080fd5b506103c960048036038101906103c49190612069565b610cf3565b6040516103dd989796959493929190612100565b60405180910390f35b3480156103f257600080fd5b5061040d60048036038101906104089190612185565b610df0565b005b34801561041b57600080fd5b5061043660048036038101906104319190611b50565b610ffa565b6040516104439190611cfc565b60405180910390f35b34801561045857600080fd5b50610473600480360381019061046e9190612069565b611042565b60405161048091906122af565b60405180910390f35b34801561049557600080fd5b506104b060048036038101906104ab9190612069565b6111a5565b005b3480156104be57600080fd5b506104d960048036038101906104d49190612185565b6113da565b005b3480156104e757600080fd5b5061050260048036038101906104fd9190612069565b611548565b005b34801561051057600080fd5b5061052b600480360381019061052691906122d1565b611705565b005b6000600460003373ffffffffffffffffffffffffffffffffffffffff1673ffffffffffffffffffffffffffffffffffffffff1681526020019081526020016000208260405161057c919061235e565b9081526020016040518091039020549050919050565b600460205281600052604060002081805160208101820180518482526020830160208501208183528095505050505050600091509150505481565b600060648284866105de9190612375565b6105e89190612375565b6105f291906123e6565b90509392505050565b6003818051602081018201805184825260208301602085012081835280955050505050506000915054906101000a900473ffffffffffffffffffffffffffffffffffffffff1681565b6006602052816000526040600020818154811061066057600080fd5b90600052602060002001600091509150505481565b60606002805480602002602001604051908101604052809291908181526020016000905b828210156107455783829060005260206000200180546106b890612446565b80601f01602080910402602001604051908101604052809291908181526020018280546106e490612446565b80156107315780601f1061070657610100808354040283529160200191610731565b820191906000526020600020905b81548152906001019060200180831161071457829003601f168201915b505050505081526020019060010190610699565b50505050905090565b6060600660003373ffffffffffffffffffffffffffffffffffffffff1673ffffffffffffffffffffffffffffffffffffffff1681526020019081526020016000208054806020026020016040519081016040528092919081815260200182805480156107d957602002820191906000526020600020905b8154815260200190600101908083116107c5575b5050505050905090565b600073ffffffffffffffffffffffffffffffffffffffff1660038660405161080b919061235e565b908152602001604051809103902060009054906101000a900473ffffffffffffffffffffffffffffffffffffffff1673ffffffffffffffffffffffffffffffffffffffff1603610890576040517f08c379a0000000000000000000000000000000000000000000000000000000008152600401610887906124c3565b60405180910390fd5b801561090d5783600460003373ffffffffffffffffffffffffffffffffffffffff1673ffffffffffffffffffffffffffffffffffffffff168152602001908152602001600020866040516108e4919061235e565b9081526020016040518091039020600082825461090191906124e3565b925050819055506109cd565b60038560405161091d919061235e565b908152602001604051809103902060009054906101000a900473ffffffffffffffffffffffffffffffffffffffff1673ffffffffffffffffffffffffffffffffffffffff166323b872dd3330876040518463ffffffff1660e01b815260040161098893929190612517565b6020604051808303816000875af11580156109a7573d6000803e3d6000fd5b505050506040513d601f19601f820116820180604052508101906109cb9190612563565b505b6040518061010001604052806109e3600061182b565b81526020018681526020018581526020018481526020013373ffffffffffffffffffffffffffffffffffffffff1681526020014281526020018381526020016001151581525060056000610a37600061182b565b8152602001908152602001600020600082015181600001556020820151816001019081610a64919061273c565b50604082015181600201556060820151816003015560808201518160040160006101000a81548173ffffffffffffffffffffffffffffffffffffffff021916908373ffffffffffffffffffffffffffffffffffffffff16021790555060a0820151816005015560c0820151816006015560e08201518160070160006101000a81548160ff0219169083151502179055509050506000610b05858560016105cd565b905080600460003373ffffffffffffffffffffffffffffffffffffffff1673ffffffffffffffffffffffffffffffffffffffff168152602001908152602001600020604051610b539061285a565b90815260200160405180910390206000828254610b709190611951565b92505081905550600660003373ffffffffffffffffffffffffffffffffffffffff1673ffffffffffffffffffffffffffffffffffffffff168152602001908152602001600020610bc0600061182b565b90806001815401808255809150506001900390600052602060002001600090919091909150557f145c75c080396fffb9b8dde4304ded60cd207f526c4fa5acece3b64e8be90203610c11600061182b565b8787873342896001604051610c2d989796959493929190612100565b60405180910390a1610c3f6000611839565b505050505050565b60078181548110610c5757600080fd5b906000526020600020016000915090508054610c7290612446565b80601f0160208091040260200160405190810160405280929190818152602001828054610c9e90612446565b8015610ceb5780601f10610cc057610100808354040283529160200191610ceb565b820191906000526020600020905b815481529060010190602001808311610cce57829003601f168201915b505050505081565b6005602052806000526040600020600091509050806000015490806001018054610d1c90612446565b80601f0160208091040260200160405190810160405280929190818152602001828054610d4890612446565b8015610d955780601f10610d6a57610100808354040283529160200191610d95565b820191906000526020600020905b815481529060010190602001808311610d7857829003601f168201915b5050505050908060020154908060030154908060040160009054906101000a900473ffffffffffffffffffffffffffffffffffffffff16908060050154908060060154908060070160009054906101000a900460ff16905088565b81600460003373ffffffffffffffffffffffffffffffffffffffff1673ffffffffffffffffffffffffffffffffffffffff16815260200190815260200160002082604051610e3e919061235e565b9081526020016040518091039020541015610e8e576040517f08c379a0000000000000000000000000000000000000000000000000000000008152600401610e85906128bb565b60405180910390fd5b81600460003373ffffffffffffffffffffffffffffffffffffffff1673ffffffffffffffffffffffffffffffffffffffff16815260200190815260200160002082604051610edc919061235e565b90815260200160405180910390206000828254610ef991906124e3565b92505081905550600381604051610f10919061235e565b908152602001604051809103902060009054906101000a900473ffffffffffffffffffffffffffffffffffffffff1673ffffffffffffffffffffffffffffffffffffffff1663a9059cbb33846040518363ffffffff1660e01b8152600401610f799291906128db565b6020604051808303816000875af1158015610f98573d6000803e3d6000fd5b505050506040513d601f19601f82011682018060405250810190610fbc9190612563565b507f31137129ea5cf09ff3602b2c834c3ed51740a65d812d3e152db871e550df6c3a8183604051610fee929190612904565b60405180910390a15050565b600060038260405161100c919061235e565b908152602001604051809103902060009054906101000a900473ffffffffffffffffffffffffffffffffffffffff169050919050565b61104a61184f565b60056000838152602001908152602001600020604051806101000160405290816000820154815260200160018201805461108390612446565b80601f01602080910402602001604051908101604052809291908181526020018280546110af90612446565b80156110fc5780601f106110d1576101008083540402835291602001916110fc565b820191906000526020600020905b8154815290600101906020018083116110df57829003601f168201915b5050505050815260200160028201548152602001600382015481526020016004820160009054906101000a900473ffffffffffffffffffffffffffffffffffffffff1673ffffffffffffffffffffffffffffffffffffffff1673ffffffffffffffffffffffffffffffffffffffff16815260200160058201548152602001600682015481526020016007820160009054906101000a900460ff1615151515815250509050919050565b3373ffffffffffffffffffffffffffffffffffffffff166005600083815260200190815260200160002060040160009054906101000a900473ffffffffffffffffffffffffffffffffffffffff1673ffffffffffffffffffffffffffffffffffffffff1614611249576040517f08c379a000000000000000000000000000000000000000000000000000000000815260040161124090612980565b60405180910390fd5b600115156005600083815260200190815260200160002060070160009054906101000a900460ff161515146112b3576040517f08c379a00000000000000000000000000000000000000000000000000000000081526004016112aa906129ec565b60405180910390fd5b6005600082815260200190815260200160002060060154421161130b576040517f08c379a000000000000000000000000000000000000000000000000000000000815260040161130290612a58565b60405180910390fd5b60006005600083815260200190815260200160002060070160006101000a81548160ff0219169083151502179055506005600082815260200190815260200160002060020154600460003373ffffffffffffffffffffffffffffffffffffffff1673ffffffffffffffffffffffffffffffffffffffff168152602001908152602001600020600560008481526020019081526020016000206001016040516113b39190612afb565b908152602001604051809103902060008282546113d09190611951565b9250508190555050565b81600460003373ffffffffffffffffffffffffffffffffffffffff1673ffffffffffffffffffffffffffffffffffffffff16815260200190815260200160002082604051611428919061235e565b908152602001604051809103902060008282546114459190611951565b9250508190555060038160405161145c919061235e565b908152602001604051809103902060009054906101000a900473ffffffffffffffffffffffffffffffffffffffff1673ffffffffffffffffffffffffffffffffffffffff166323b872dd3330856040518463ffffffff1660e01b81526004016114c793929190612517565b6020604051808303816000875af11580156114e6573d6000803e3d6000fd5b505050506040513d601f19601f8201168201806040525081019061150a9190612563565b507f3461ba27d9932c11408ca02528d7676a3d67a8fe644157a7eac1fccc3b3b5225818360405161153c929190612904565b60405180910390a15050565b80600460003373ffffffffffffffffffffffffffffffffffffffff1673ffffffffffffffffffffffffffffffffffffffff16815260200190815260200160002060405161159490611903565b90815260200160405180910390205410156115e4576040517f08c379a00000000000000000000000000000000000000000000000000000000081526004016115db906128bb565b60405180910390fd5b80600460003373ffffffffffffffffffffffffffffffffffffffff1673ffffffffffffffffffffffffffffffffffffffff16815260200190815260200160002060405161163090611903565b9081526020016040518091039020600082825461164d91906124e3565b9250508190555060003373ffffffffffffffffffffffffffffffffffffffff168260405161167a90612b43565b60006040518083038185875af1925050503d80600081146116b7576040519150601f19603f3d011682016040523d82523d6000602084013e6116bc565b606091505b50509050806116ca57600080fd5b7f31137129ea5cf09ff3602b2c834c3ed51740a65d812d3e152db871e550df6c3a826040516116f991906119c8565b60405180910390a15050565b3373ffffffffffffffffffffffffffffffffffffffff16600160009054906101000a900473ffffffffffffffffffffffffffffffffffffffff1673ffffffffffffffffffffffffffffffffffffffff1614611795576040517f08c379a000000000000000000000000000000000000000000000000000000000815260040161178c90612bca565b60405180910390fd5b6002829080600181540180825580915050600190039060005260206000200160009091909190915090816117c9919061273c565b50806003836040516117db919061235e565b908152602001604051809103902060006101000a81548173ffffffffffffffffffffffffffffffffffffffff021916908373ffffffffffffffffffffffffffffffffffffffff1602179055505050565b600081600001549050919050565b6001816000016000828254019250508190555050565b60405180610100016040528060008152602001606081526020016000815260200160008152602001600073ffffffffffffffffffffffffffffffffffffffff16815260200160008152602001600081526020016000151581525090565b600081905092915050565b7f4d61746963000000000000000000000000000000000000000000000000000000600082015250565b60006118ed6005836118ac565b91506118f8826118b7565b600582019050919050565b600061190e826118e0565b9150819050919050565b6000819050919050565b7f4e487b7100000000000000000000000000000000000000000000000000000000600052601160045260246000fd5b600061195c82611918565b915061196783611918565b925082820190508082111561197f5761197e611922565b5b92915050565b600082825260208201905092915050565b60006119a3600583611985565b91506119ae826118b7565b602082019050919050565b6119c281611918565b82525050565b600060408201905081810360008301526119e181611996565b90506119f060208301846119b9565b92915050565b6000604051905090565b600080fd5b600080fd5b600080fd5b600080fd5b6000601f19601f8301169050919050565b7f4e487b7100000000000000000000000000000000000000000000000000000000600052604160045260246000fd5b611a5d82611a14565b810181811067ffffffffffffffff82111715611a7c57611a7b611a25565b5b80604052505050565b6000611a8f6119f6565b9050611a9b8282611a54565b919050565b600067ffffffffffffffff821115611abb57611aba611a25565b5b611ac482611a14565b9050602081019050919050565b82818337600083830152505050565b6000611af3611aee84611aa0565b611a85565b905082815260208101848484011115611b0f57611b0e611a0f565b5b611b1a848285611ad1565b509392505050565b600082601f830112611b3757611b36611a0a565b5b8135611b47848260208601611ae0565b91505092915050565b600060208284031215611b6657611b65611a00565b5b600082013567ffffffffffffffff811115611b8457611b83611a05565b5b611b9084828501611b22565b91505092915050565b6000602082019050611bae60008301846119b9565b92915050565b600073ffffffffffffffffffffffffffffffffffffffff82169050919050565b6000611bdf82611bb4565b9050919050565b611bef81611bd4565b8114611bfa57600080fd5b50565b600081359050611c0c81611be6565b92915050565b60008060408385031215611c2957611c28611a00565b5b6000611c3785828601611bfd565b925050602083013567ffffffffffffffff811115611c5857611c57611a05565b5b611c6485828601611b22565b9150509250929050565b611c7781611918565b8114611c8257600080fd5b50565b600081359050611c9481611c6e565b92915050565b600080600060608486031215611cb357611cb2611a00565b5b6000611cc186828701611c85565b9350506020611cd286828701611c85565b9250506040611ce386828701611c85565b9150509250925092565b611cf681611bd4565b82525050565b6000602082019050611d116000830184611ced565b92915050565b60008060408385031215611d2e57611d2d611a00565b5b6000611d3c85828601611bfd565b9250506020611d4d85828601611c85565b9150509250929050565b600081519050919050565b600082825260208201905092915050565b6000819050602082019050919050565b600081519050919050565b600082825260208201905092915050565b60005b83811015611dbd578082015181840152602081019050611da2565b60008484015250505050565b6000611dd482611d83565b611dde8185611d8e565b9350611dee818560208601611d9f565b611df781611a14565b840191505092915050565b6000611e0e8383611dc9565b905092915050565b6000602082019050919050565b6000611e2e82611d57565b611e388185611d62565b935083602082028501611e4a85611d73565b8060005b85811015611e865784840389528151611e678582611e02565b9450611e7283611e16565b925060208a01995050600181019050611e4e565b50829750879550505050505092915050565b60006020820190508181036000830152611eb28184611e23565b905092915050565b600081519050919050565b600082825260208201905092915050565b6000819050602082019050919050565b611eef81611918565b82525050565b6000611f018383611ee6565b60208301905092915050565b6000602082019050919050565b6000611f2582611eba565b611f2f8185611ec5565b9350611f3a83611ed6565b8060005b83811015611f6b578151611f528882611ef5565b9750611f5d83611f0d565b925050600181019050611f3e565b5085935050505092915050565b60006020820190508181036000830152611f928184611f1a565b905092915050565b60008115159050919050565b611faf81611f9a565b8114611fba57600080fd5b50565b600081359050611fcc81611fa6565b92915050565b600080600080600060a08688031215611fee57611fed611a00565b5b600086013567ffffffffffffffff81111561200c5761200b611a05565b5b61201888828901611b22565b955050602061202988828901611c85565b945050604061203a88828901611c85565b935050606061204b88828901611c85565b925050608061205c88828901611fbd565b9150509295509295909350565b60006020828403121561207f5761207e611a00565b5b600061208d84828501611c85565b91505092915050565b60006120a182611d83565b6120ab8185611985565b93506120bb818560208601611d9f565b6120c481611a14565b840191505092915050565b600060208201905081810360008301526120e98184612096565b905092915050565b6120fa81611f9a565b82525050565b600061010082019050612116600083018b6119b9565b8181036020830152612128818a612096565b905061213760408301896119b9565b61214460608301886119b9565b6121516080830187611ced565b61215e60a08301866119b9565b61216b60c08301856119b9565b61217860e08301846120f1565b9998505050505050505050565b6000806040838503121561219c5761219b611a00565b5b60006121aa85828601611c85565b925050602083013567ffffffffffffffff8111156121cb576121ca611a05565b5b6121d785828601611b22565b9150509250929050565b6121ea81611bd4565b82525050565b6121f981611f9a565b82525050565b6000610100830160008301516122186000860182611ee6565b50602083015184820360208601526122308282611dc9565b91505060408301516122456040860182611ee6565b5060608301516122586060860182611ee6565b50608083015161226b60808601826121e1565b5060a083015161227e60a0860182611ee6565b5060c083015161229160c0860182611ee6565b5060e08301516122a460e08601826121f0565b508091505092915050565b600060208201905081810360008301526122c981846121ff565b905092915050565b600080604083850312156122e8576122e7611a00565b5b600083013567ffffffffffffffff81111561230657612305611a05565b5b61231285828601611b22565b925050602061232385828601611bfd565b9150509250929050565b600061233882611d83565b61234281856118ac565b9350612352818560208601611d9f565b80840191505092915050565b600061236a828461232d565b915081905092915050565b600061238082611918565b915061238b83611918565b925082820261239981611918565b915082820484148315176123b0576123af611922565b5b5092915050565b7f4e487b7100000000000000000000000000000000000000000000000000000000600052601260045260246000fd5b60006123f182611918565b91506123fc83611918565b92508261240c5761240b6123b7565b5b828204905092915050565b7f4e487b7100000000000000000000000000000000000000000000000000000000600052602260045260246000fd5b6000600282049050600182168061245e57607f821691505b60208210810361247157612470612417565b5b50919050565b7f63616e6e6f74207374616b65207468697320746f6b656e000000000000000000600082015250565b60006124ad601783611985565b91506124b882612477565b602082019050919050565b600060208201905081810360008301526124dc816124a0565b9050919050565b60006124ee82611918565b91506124f983611918565b925082820390508181111561251157612510611922565b5b92915050565b600060608201905061252c6000830186611ced565b6125396020830185611ced565b61254660408301846119b9565b949350505050565b60008151905061255d81611fa6565b92915050565b60006020828403121561257957612578611a00565b5b60006125878482850161254e565b91505092915050565b60008190508160005260206000209050919050565b60006020601f8301049050919050565b600082821b905092915050565b6000600883026125f27fffffffffffffffffffffffffffffffffffffffffffffffffffffffffffffffff826125b5565b6125fc86836125b5565b95508019841693508086168417925050509392505050565b6000819050919050565b600061263961263461262f84611918565b612614565b611918565b9050919050565b6000819050919050565b6126538361261e565b61266761265f82612640565b8484546125c2565b825550505050565b600090565b61267c61266f565b61268781848461264a565b505050565b5b818110156126ab576126a0600082612674565b60018101905061268d565b5050565b601f8211156126f0576126c181612590565b6126ca846125a5565b810160208510156126d9578190505b6126ed6126e5856125a5565b83018261268c565b50505b505050565b600082821c905092915050565b6000612713600019846008026126f5565b1980831691505092915050565b600061272c8383612702565b9150826002028217905092915050565b61274582611d83565b67ffffffffffffffff81111561275e5761275d611a25565b5b6127688254612446565b6127738282856126af565b600060209050601f8311600181146127a65760008415612794578287015190505b61279e8582612720565b865550612806565b601f1984166127b486612590565b60005b828110156127dc578489015182556001820191506020850194506020810190506127b7565b868310156127f957848901516127f5601f891682612702565b8355505b6001600288020188555050505b505050505050565b7f5368656c6c000000000000000000000000000000000000000000000000000000600082015250565b60006128446005836118ac565b915061284f8261280e565b600582019050919050565b600061286582612837565b9150819050919050565b7f496e73756666696369656e742066756e64730000000000000000000000000000600082015250565b60006128a5601283611985565b91506128b08261286f565b602082019050919050565b600060208201905081810360008301526128d481612898565b9050919050565b60006040820190506128f06000830185611ced565b6128fd60208301846119b9565b9392505050565b6000604082019050818103600083015261291e8185612096565b905061292d60208301846119b9565b9392505050565b7f4e6f7420746865206f776e6572206f66207468697320706f736974696f6e0000600082015250565b600061296a601e83611985565b915061297582612934565b602082019050919050565b600060208201905081810360008301526129998161295d565b9050919050565b7f506f736974696f6e20616c726561647920636c6f736564000000000000000000600082015250565b60006129d6601783611985565b91506129e1826129a0565b602082019050919050565b60006020820190508181036000830152612a05816129c9565b9050919050565b7f506f736974696f6e206e6f74206d617475726520796574000000000000000000600082015250565b6000612a42601783611985565b9150612a4d82612a0c565b602082019050919050565b60006020820190508181036000830152612a7181612a35565b9050919050565b60008154612a8581612446565b612a8f81866118ac565b94506001821660008114612aaa5760018114612abf57612af2565b60ff1983168652811515820286019350612af2565b612ac885612590565b60005b83811015612aea57815481890152600182019150602081019050612acb565b838801955050505b50505092915050565b6000612b078284612a78565b915081905092915050565b600081905092915050565b50565b6000612b2d600083612b12565b9150612b3882612b1d565b600082019050919050565b6000612b4e82612b20565b9150819050919050565b7f4f6e6c79206f776e6572206d61792063616c6c20746869732066756e6374696f60008201527f6e00000000000000000000000000000000000000000000000000000000000000602082015250565b6000612bb4602183611985565b9150612bbf82612b58565b604082019050919050565b60006020820190508181036000830152612be381612ba7565b905091905056fea2646970667358221220da06bb6f418e69c6fdb01f29a7fb3eced540c76753de4373881f42b7d64a7eee64736f6c63430008110033",
  "linkReferences": {},
  "deployedLinkReferences": {}
}